:100000000C942A000C9494060C94F5060C942D077D
:100010000C9447000C9447000C9447000C943F0745
:100020000C9447000C9447000C9447000C94470034
:100030000C9447000C9447000C9447000C94470024
:100040000C9447000C9447000C9447000C94470014
:100050000C94470011241FBECFE5D8E0DEBFCDBF12
:1000600010E0A8E6B0E001C01D92AD37B107E1F79E
:1000700010E0A0E6B0E0EAE3F6E102C005900D92E0
:10008000A836B107D9F70E941D080C941B0B0C94DD
:100090000000EF92FF920F931F937B018C0120E0F1
:1000A00030E040E05FE40E94F50388238CF0C80153
:1000B000B70120E030E040E05FE40E94C1010E940F
:1000C00055049B01AC01205030404040504806C0D0
:1000D000C801B7010E9455049B01AC01B901CA01D6
:1000E0001F910F91FF90EF900895A0E0B0E0EBE733
:1000F000F0E00C94E40ADC012B01FA019C919230AF
:1001000008F439C1EB018881823008F433C194309E
:1001100069F4843009F02FC111969C91119789815F
:10012000981709F428C1A0E6B0E025C1843009F48D
:1001300021C18230A9F4923009F01DC19A01AD01AC
:1001400088E0EA010990AE01E90109929E0181501F
:10015000C1F7E201898111969C918923818308C1AD
:10016000923009F407C112962D903C901397EB0141
:100170008A819B811496AD90BD90CD90DC901797AD
:10018000EC80FD800E811F819101281B390BB90184
:1001900037FF04C066277727621B730B6032710537
:1001A0000CF061C0121613066CF537014801062EDB
:1001B00004C096948794779467940A94D2F721E0C8
:1001C00030E040E050E004C0220F331F441F551FB1
:1001D0006A95D2F721503040404050402E213F21B7
:1001E00040235123211531054105510521F021E01E
:1001F00030E040E050E079018A01E628F72808293C
:1002000019293CC0232BD1F1260E371E350146019A
:10021000062E04C096948794779467940A94D2F734
:1002200021E030E040E050E004C0220F331F441FC3
:10023000551F6A95D2F721503040404050402A2146
:100240003B214C215D21211531054105510521F04E
:1002500021E030E040E050E059016A01A628B728CB
:10026000C828D9280BC0821593052CF01C01AA249C
:10027000BB24650103C0EE24FF24870111969C91E5
:10028000D20111968C91981709F445C0992339F041
:10029000A80197012A193B094C095D0906C0A6016E
:1002A00095012E193F09400B510B57FD08C01182D3
:1002B0003382228224833583468357831DC081E0A5
:1002C00081833382228288279927DC01821B930B4A
:1002D000A40BB50B84839583A683B7830DC0220F2F
:1002E000331F441F551F24833583468357838281E0
:1002F000938101979383828324813581468157813D
:10030000DA01C9010197A109B1098F5F9F4FAF4F72
:10031000BF4328F30BC0918333822282EA0CFB1C7B
:100320000C1D1D1DE482F5820683178383E0808304
:10033000248135814681578157FF1AC0C901AA27F8
:1003400097FDA095BA2F81709070A070B0705695EF
:10035000479537952795822B932BA42BB52B848318
:100360009583A683B7838281938101969383828349
:10037000DF0101C0D201CD01CDB7DEB7E2E10C94BF
:10038000000BA0E2B0E0E7ECF1E00C94F00A698326
:100390007A838B839C832D833E834F835887E9E048
:1003A000EE2EF12CEC0EFD1ECE010196B7010E943F
:1003B0007E058E010F5E1F4FCE010596B8010E948B
:1003C0007E058A8991E089278A8BC701B801AE0131
:1003D000475E5F4F0E9475000E94A904A096E6E068
:1003E0000C940C0BA0E2B0E0E8EFF1E00C94F00A02
:1003F00069837A838B839C832D833E834F835887C5
:10040000F9E0EF2EF12CEC0EFD1ECE010196B701A6
:100410000E947E058E010F5E1F4FCE010596B8012A
:100420000E947E05C701B801AE01475E5F4F0E9482
:1004300075000E94A904A096E6E00C940C0BA0E2C3
:10044000B0E0E5E2F2E00C94E40A69837A838B83FE
:100450009C832D833E834F835887CE010196BE0136
:10046000675F7F4F0E947E05CE010596BE016F5EDD
:100470007F4F0E947E059985923088F0898982306D
:10048000C8F0943019F4823051F404C0843029F457
:10049000923081F480E690E0C6C0923049F420E0CA
:1004A0009A858A89981321E02A87CE010996BBC0D4
:1004B000823049F420E09A858A89981321E02A8BBA
:1004C000CE014196B0C02D843E844F8458886D88FB
:1004D0007E888F88988CEE24FF248701AA24BB2471
:1004E000650140E050E060E070E0E0E0F0E0C10174
:1004F00081709070892BE9F0E60CF71C081D191D1E
:100500009A01AB012A0D3B1D4C1D5D1D80E090E062
:10051000A0E0B0E0E614F7040805190520F481E036
:1005200090E0A0E0B0E0BA01A901480F591F6A1F8E
:100530007B1FAA0CBB1CCC1CDD1C97FE08C081E0F5
:1005400090E0A0E0B0E0A82AB92ACA2ADB2A3196B6
:10055000E032F10549F0660C771C881C991C569412
:10056000479437942794C3CFFA85EA892B893C892D
:100570008B859C85280F391F2E5F3F4F17C0CA01FE
:1005800081709070892B61F016950795F794E79428
:1005900080E090E0A0E0B0E8E82AF92A0A2B1B2BC3
:1005A00076956795579547952F5F3F4F77FDE7CF36
:1005B0000CC0440F551F661F771F17FD4160EE0CDE
:1005C000FF1C001F111F21503040403090E05907A0
:1005D00090E0690790E4790760F32B8F3C8FDB0193
:1005E000CA018F779070A070B07080349105A1051A
:1005F000B10561F447FD0AC0E114F10401051105DC
:1006000029F0405C5F4F6F4F7F4F40781A8EFE1786
:1006100011F081E08A8F4D8F5E8F6F8F78A383E01A
:10062000898FCE0149960E94A904A096E2E10C941C
:10063000000BA8E1B0E0EFE1F3E00C94EC0A698371
:100640007A838B839C832D833E834F835887B9E0C5
:10065000EB2EF12CEC0EFD1ECE010196B7010E948F
:100660007E058E010F5E1F4FCE010596B8010E94D8
:100670007E052985223008F47EC03989323010F495
:10068000B8017CC08A859A8989278A87243011F02D
:10069000223031F4231709F06EC060E670E06EC0BE
:1006A000343039F41D861E861F86188A1C861B86E8
:1006B00004C0323021F484E08987B7015FC02B8504
:1006C0003C858B899C89281B390B3C872B87ED84C3
:1006D000FE840F851889AD88BE88CF88D88CEA142F
:1006E000FB040C051D0540F4EE0CFF1C001F111F40
:1006F000215030403C872B8720E030E040E050E044
:1007000080E090E0A0E0B0E460E070E0EA14FB0478
:100710000C051D0540F0282B392B4A2B5B2BEA18C2
:10072000FB080C091D09B695A79597958795EE0CC2
:10073000FF1C001F111F6F5F7F4F6F31710531F775
:10074000DA01C9018F779070A070B0708034910584
:10075000A105B10561F427FD0AC0E114F10401050A
:10076000110529F0205C3F4F4F4F5F4F20782D87B8
:100770003E874F87588BBE01675F7F4FCB010E943A
:10078000A9046896EAE00C94080BA8E1B0E0EBEC51
:10079000F3E00C94F00A69837A838B839C832D8326
:1007A0003E834F83588789E0E82EF12CEC0EFD1E26
:1007B000CE010196B7010E947E058E010F5E1F4F8C
:1007C000CE010596B8010E947E058985823040F0F1
:1007D0008989823028F0C701B8010E94F60501C05E
:1007E0008FEF6896E6E00C940C0BA8E1B0E0EBEF1D
:1007F000F3E00C94F00A69837A838B839C832D83C6
:100800003E834F83588789E0E82EF12CEC0EFD1EC5
:10081000CE010196B7010E947E058E010F5E1F4F2B
:10082000CE010596B8010E947E058985823040F090
:100830008989823028F0C701B8010E94F60501C0FD
:100840008FEF6896E6E00C940C0BA8E1B0E0EBE2C9
:10085000F4E00C94F00A69837A838B839C832D8364
:100860003E834F83588789E0E82EF12CEC0EFD1E65
:10087000CE010196B7010E947E058E010F5E1F4FCB
:10088000CE010596B8010E947E058985823040F030
:100890008989823028F0C701B8010E94F60501C09D
:1008A00081E06896E6E00C940C0BACE0B0E0EBE580
:1008B000F4E00C94F40A69837A838B839C83CE01E1
:1008C0000196BE016B5F7F4F0E947E058D81823055
:1008D00061F1823050F1843021F48E81882351F10E
:1008E0002EC02F81388537FD20C06E812F31310514
:1008F0001CF06623F9F023C08EE190E0821B930B7D
:1009000029853A854B855C8504C056954795379572
:1009100027958A95D2F76623B1F05095409530958A
:1009200021953F4F4F4F5F4F0EC020E030E040E039
:1009300050E009C02FEF3FEF4FEF5FE704C020E02A
:1009400030E040E050E8B901CA012C96E2E00C9496
:10095000100BDF92EF92FF920F931F93FC01E48044
:10096000F58006811781D1808081823048F480E053
:1009700090E0A0E1B0E0E82AF92A0A2B1B2BA5C0E1
:10098000843009F49FC0823021F4EE24FF248701D3
:1009900005C0E114F1040105110519F4E0E0F0E0EF
:1009A00096C0628173819FEF623879070CF05BC05B
:1009B00022E83FEF261B370B2A3131052CF020E0CF
:1009C00030E040E050E02AC0B801A701022E04C088
:1009D00076956795579547950A94D2F781E090E010
:1009E000A0E0B0E004C0880F991FAA1FBB1F2A9582
:1009F000D2F70197A109B1098E219F21A023B1232C
:100A00000097A105B10521F081E090E0A0E0B0E001
:100A10009A01AB01282B392B4A2B5B2BDA01C90138
:100A20008F779070A070B07080349105A105B105EA
:100A300039F427FF09C0205C3F4F4F4F5F4F04C080
:100A4000215C3F4F4F4F5F4FE0E0F0E02030A0E0EF
:100A50003A07A0E04A07A0E45A0710F0E1E0F0E00E
:100A600079018A0127C06038710564F5FB01E158FE
:100A7000FF4FD801C7018F779070A070B07080349D
:100A80009105A105B10539F4E7FE0DC080E490E0C1
:100A9000A0E0B0E004C08FE390E0A0E0B0E0E80E9A
:100AA000F91E0A1F1B1F17FF05C016950795F7941F
:100AB000E794319687E016950795F794E7948A9521
:100AC000D1F705C0EE24FF248701EFEFF0E06E2F91
:100AD000679566276795902F9F77D794DD24D794E5
:100AE0008E2F8695492F462B582F5D29B701CA01B5
:100AF0001F910F91FF90EF90DF900895FC01DB01B3
:100B0000408151812281622F6F7770E0221F22275E
:100B1000221F9381892F880F822B282F30E0991F65
:100B20009927991F11969C93119721153105A9F5C5
:100B3000411551056105710511F482E037C082E865
:100B40009FEF13969C938E9312979A01AB0167E0E7
:100B5000220F331F441F551F6A95D1F783E08C93F2
:100B60000DC0220F331F441F551F12968D919C916B
:100B70001397019713969C938E931297203080E0E1
:100B8000380780E0480780E4580758F314962D93FF
:100B90003D934D935C93179708952F3F310579F45A
:100BA000411551056105710519F484E08C93089590
:100BB00064FF03C081E08C9312C01C9210C02F57B9
:100BC000304013963C932E93129783E08C9387E0EA
:100BD000440F551F661F771F8A95D1F770641496CE
:100BE0004D935D936D937C93179708951F93DC014C
:100BF000FB019C91923008F447C08081823008F458
:100C000043C0943051F411961C91843099F5818140
:100C1000682F70E0611B71093FC0843021F0923071
:100C200031F48230B9F18181882389F12DC0119688
:100C30001C9111978230F1F081811817D9F4129626
:100C40002D913C911397828193818217930794F0A1
:100C500028173907BCF014968D919D910D90BC9189
:100C6000A02D2481358146815781281739074A07ED
:100C70005B0718F4112341F00AC082179307A407F9
:100C8000B50740F4112319F061E070E005C06FEF83
:100C90007FEF02C060E070E0CB011F910895DF9309
:100CA000CF93CDB7DEB7EFE4F0E01082EEE4F0E0F2
:100CB0001082ECE4F0E011821082EAE4F0E088E0D7
:100CC0009DE391838083A9E5B0E0E9E5F0E08081D0
:100CD00080618C93EEE4F0E08DE08083CF91DF9132
:100CE0000895DF93CF93CDB7DEB7A1E3B0E0E1E3A2
:100CF000F0E080818B7F8C93A2E3B0E0E2E3F0E050
:100D0000808184608C93A5E5B0E0E5E5F0E080812A
:100D100082608C93ABE5B0E0EBE5F0E0808180642D
:100D20008C93CF91DF9108951F920F920FB60F927F
:100D300011248F93AF93BF93EF93FF93DF93CF93E0
:100D4000CDB7DEB710926D0080916D0080936C007E
:100D500080916C0080936B0080916B0080936A009F
:100D600080916A0080936900809169008093680097
:100D7000A2E3B0E0E2E3F0E080818E7F8C93CF913C
:100D8000DF91FF91EF91BF91AF918F910F900FBEC7
:100D90000F901F901895DF93CF93CDB7DEB7A1E3E7
:100DA000B0E0E1E3F0E08081877F8C93A2E3B0E0E4
:100DB000E2E3F0E0808188608C93A5E5B0E0E5E5B2
:100DC000F0E0808188608C93A5E5B0E0E5E5F0E097
:100DD00080818B7F8C93ABE5B0E0EBE5F0E0808128
:100DE00080688C93CF91DF9108951F920F920FB678
:100DF0000F9211248F93DF93CF93CDB7DEB781E0AD
:100E000080936F00CF91DF918F910F900FBE0F9065
:100E10001F901895DF93CF93CDB7DEB7A7E3B0E06F
:100E2000E7E3F0E080818B7F8C93A8E3B0E0E8E318
:100E3000F0E0808184608C93A4E5B0E0E4E5F0E02C
:100E400080818F7B8C93ABE5B0E0EBE5F0E08081B7
:100E500080628C93CF91DF9108951F920F920FB60D
:100E60000F921124DF93CF93CDB7DEB710926F00AE
:100E7000CF91DF910F900FBE0F901F9018951F928A
:100E80000F920FB60F9211248F93AF93BF93EF93EE
:100E9000FF93DF93CF93CDB7DEB780916F008823A8
:100EA00009F0BFC080916E00882309F052C0A2E310
:100EB000B0E0E2E3F0E080818E7F8C938091680067
:100EC0008F5F80936800809168008A3039F41092B7
:100ED0006800809169008F5F80936900809169004C
:100EE000863039F41092690080916A008F5F809398
:100EF0006A0080916A008A3039F410926A00809109
:100F00006B008F5F80936B0080916B00863039F4AB
:100F100010926B0080916C008F5F80936C008091C9
:100F20006C008A3039F410926C0080916D008F5FF4
:100F300080936D0080916D00823009F072C08091C5
:100F40006C00843009F06DC010926D0010926C003E
:100F500068C080916800882331F0809168008150DA
:100F6000809368005EC080916900882349F0809179
:100F7000690081508093690089E08093680051C0C6
:100F800080916A00882361F080916A00815080938B
:100F90006A0085E08093690089E08093680041C021
:100FA00080916B00882379F080916B008150809351
:100FB0006B0089E080936A0085E08093690089E096
:100FC000809368002EC080916C00882321F480916A
:100FD0006D008823F9F080916C00882331F08091B6
:100FE0006C00815080936C0008C089E080936C0095
:100FF00080916D00815080936D0085E080936B003F
:1010000089E080936A0085E08093690089E080939D
:10101000680007C0A2E3B0E0E2E3F0E08081816015
:101020008C93CF91DF91FF91EF91BF91AF918F9111
:101030000F900FBE0F901F901895DF93CF930F92D4
:10104000CDB7DEB7A4E3B0E0E4E3F0E080818F60E9
:101050008C93A5E3B0E0E5E3F0E08081807F8C93A2
:10106000AAE3B0E0EAE3F0E080818F638C93EBE3E6
:10107000F0E01082A1E3B0E0E1E3F0E08081816381
:101080008C93E7E3F0E08081E7E3F0E01082E8E3AF
:10109000F0E08FEF8083A2E3B0E0E2E3F0E0808154
:1010A0008E7F8C93A2E3B0E0E2E3F0E08081806188
:1010B0008C93A2E3B0E0E2E3F0E080818F7D8C933B
:1010C0000E944F060E9471060E94CB060E940A07EA
:1010D00078940E94CA090E94E909E6E3F0E0808161
:1010E000882374F080917600882361F490916E00DB
:1010F00081E0892780936E0081E08093760002C0B2
:101100001092760080916E00882379F4A2E3B0E01B
:10111000E2E3F0E0808180618C93A2E3B0E0E2E35F
:10112000F0E080818F7D8C930EC0A2E3B0E0E2E31B
:10113000F0E0808180628C93A2E3B0E0E2E3F0E033
:1011400080818F7E8C9380916F00882311F2E6E37B
:10115000F0E08081882F90E082709070009741F5D8
:1011600080917100882331F580916C008F5F8093AE
:101170006C0080916C008A3038F010926C00809185
:101180006D008F5F80936D0080916D00833040F41F
:1011900080916D00823041F480916C00843020F0A9
:1011A00010926D0010926C0081E08093710002C07B
:1011B00010927100E6E3F0E08081882F90E081706A
:1011C0009070009749F580917000882339F58091DF
:1011D0006C00882359F480916D00882339F482E0F3
:1011E00080936D0083E080936C0012C080916C004E
:1011F000882349F489E080936C0080916D008150D0
:1012000080936D0005C080916C00815080936C00CC
:1012100081E08093700002C010927000E6E3F0E07D
:101220008081882F90E0807190700097F1F4809118
:1012300073008823E1F480916A008F5F80936A00D5
:1012400080916A008A3038F010926A0080916B00B9
:101250008F5F80936B0080916B00863010F010924E
:101260006B0081E08093730002C010927300E6E38C
:10127000F0E08081882F90E088709070009749F5A9
:1012800080917200882339F580916A00882359F48F
:1012900080916B00882339F485E080936B0089E0AE
:1012A00080936A0012C080916A00882349F489E023
:1012B00080936A0080916B00815080936B0005C021
:1012C00080916A00815080936A0081E0809372006F
:1012D00002C010927200E6E3F0E08081882F90E077
:1012E000807490700097F1F4809175008823E1F488
:1012F000809168008F5F80936800809168008A30D9
:1013000038F010926800809169008F5F80936900C7
:1013100080916900863010F01092690081E080931E
:10132000750002C010927500E6E3F0E08081882F1E
:1013300090E080729070009751F58091740088233E
:1013400009F0C7CE80916800882359F48091690024
:10135000882339F485E08093690089E080936800F0
:1013600012C080916800882349F489E08093680066
:101370008091690081508093690005C08091680068
:1013800081508093680081E080937400A2CE109217
:1013900074009FCEDF93CF93CDB7DEB78091680006
:1013A00080937700809169008093780080916A0033
:1013B0008093790080916B0080937A0080916C001B
:1013C00080937B0080916D0080937C00CF91DF91B2
:1013D0000895DF93CF93CDB7DEB769970FB6F89432
:1013E000DEBF0FBECDBF198EE2C0EBE3F0E0898D0A
:1013F000282F30E081E090E002C0880F991F2A95E5
:10140000E2F78083A5E3B0E0E5E3F0E08081282FF8
:10141000207F898D882F90E0FC01E958FF4F808163
:101420008F70822B8C9380E090E0AAE7B4E48D8BE0
:101430009E8BAF8BB88F6D897E898F89988D2BEAB3
:101440003AEA4AEA50E40E941F02DC01CB01898B90
:101450009A8BAB8BBC8B69897A898B899C8920E0BC
:1014600030E040E85FE30E94250488231CF481E01B
:10147000888B91C069897A898B899C8920E030E0CA
:101480004FE753E40E94C50318160CF07BC06D892A
:101490007E898F89988D20E030E04AE754E40E94ED
:1014A0001903DC01CB018C879D87AE87BF876C85D4
:1014B0007D858E859F8520E030E04AE755E40E94D7
:1014C0001F02DC01CB0188879987AA87BB876885C3
:1014D00079858A859B8520E030E040E85FE30E94C3
:1014E000250488232CF481E090E09F838E833FC005
:1014F000688579858A859B8520E03FEF4FE757E433
:101500000E94C50318164CF56C857D858E859F85D8
:1015100020E030E040E251E40E941F02DC01CB01F8
:10152000BC01CD010E944900DC01CB019F838E8369
:101530000FC080E991E09D838C838C819D81019710
:10154000F1F79D838C838E819F8101979F838E838A
:101550008E819F81009769F724C0688579858A8587
:101560009B850E944900DC01CB019F838E838E8185
:101570009F819B838A838A819B810197F1F79B835B
:101580008A830FC069897A898B899C890E94490066
:10159000DC01CB01888B8889898389818A95F1F761
:1015A0008983EBE3F0E01082898D8F5F898F898DCD
:1015B000863008F41ACF69960FB6F894DEBF0FBED6
:1015C000CDBFCF91DF9108952F923F924F925F92BE
:1015D0006F927F928F929F92AF92BF92CF92DF9243
:1015E000EF92FF920F931F93CF93DF93CDB7DEB7A8
:1015F000CA1BDB0B0FB6F894DEBF0FBECDBF09943C
:101600002A88398848885F846E847D848C849B8492
:10161000AA84B984C884DF80EE80FD800C811B81A0
:10162000AA81B981CE0FD11D0FB6F894DEBF0FBECF
:0A163000CDBFED010895F894FFCF3F
:08163A000000000000000000A8
:00000001FF
